{
  "contractName": "SupplyChain",
  "abi": [
    {
      "inputs": [
        {
          "internalType": "address",
          "name": "admin",
          "type": "address"
        }
      ],
      "stateMutability": "nonpayable",
      "type": "constructor"
    },
    {
      "anonymous": false,
      "inputs": [
        {
          "indexed": true,
          "internalType": "bytes32",
          "name": "itemId",
          "type": "bytes32"
        },
        {
          "indexed": true,
          "internalType": "address",
          "name": "owner",
          "type": "address"
        },
        {
          "indexed": false,
          "internalType": "string",
          "name": "productId",
          "type": "string"
        },
        {
          "indexed": false,
          "internalType": "string",
          "name": "lotCode",
          "type": "string"
        },
        {
          "indexed": false,
          "internalType": "uint256",
          "name": "timestamp",
          "type": "uint256"
        }
      ],
      "name": "ItemCreated",
      "type": "event"
    },
    {
      "anonymous": false,
      "inputs": [
        {
          "indexed": true,
          "internalType": "bytes32",
          "name": "itemId",
          "type": "bytes32"
        },
        {
          "indexed": true,
          "internalType": "address",
          "name": "previousOwner",
          "type": "address"
        },
        {
          "indexed": true,
          "internalType": "address",
          "name": "newOwner",
          "type": "address"
        },
        {
          "indexed": false,
          "internalType": "uint256",
          "name": "timestamp",
          "type": "uint256"
        }
      ],
      "name": "ItemOwnershipTransferred",
      "type": "event"
    },
    {
      "anonymous": false,
      "inputs": [
        {
          "indexed": true,
          "internalType": "bytes32",
          "name": "itemId",
          "type": "bytes32"
        },
        {
          "indexed": true,
          "internalType": "enum SupplyChain.ItemStatus",
          "name": "newStatus",
          "type": "uint8"
        },
        {
          "indexed": true,
          "internalType": "address",
          "name": "actor",
          "type": "address"
        },
        {
          "indexed": false,
          "internalType": "string",
          "name": "location",
          "type": "string"
        },
        {
          "indexed": false,
          "internalType": "int256",
          "name": "temperature",
          "type": "int256"
        },
        {
          "indexed": false,
          "internalType": "uint256",
          "name": "timestamp",
          "type": "uint256"
        }
      ],
      "name": "ItemStateChanged",
      "type": "event"
    },
    {
      "anonymous": false,
      "inputs": [
        {
          "indexed": false,
          "internalType": "bytes32[]",
          "name": "itemIds",
          "type": "bytes32[]"
        },
        {
          "indexed": true,
          "internalType": "bytes32",
          "name": "newItemId",
          "type": "bytes32"
        },
        {
          "indexed": true,
          "internalType": "address",
          "name": "actor",
          "type": "address"
        },
        {
          "indexed": false,
          "internalType": "uint256",
          "name": "timestamp",
          "type": "uint256"
        }
      ],
      "name": "ItemsConsumed",
      "type": "event"
    },
    {
      "anonymous": false,
      "inputs": [
        {
          "indexed": false,
          "internalType": "address",
          "name": "account",
          "type": "address"
        }
      ],
      "name": "Paused",
      "type": "event"
    },
    {
      "anonymous": false,
      "inputs": [
        {
          "indexed": true,
          "internalType": "bytes32",
          "name": "role",
          "type": "bytes32"
        },
        {
          "indexed": true,
          "internalType": "bytes32",
          "name": "previousAdminRole",
          "type": "bytes32"
        },
        {
          "indexed": true,
          "internalType": "bytes32",
          "name": "newAdminRole",
          "type": "bytes32"
        }
      ],
      "name": "RoleAdminChanged",
      "type": "event"
    },
    {
      "anonymous": false,
      "inputs": [
        {
          "indexed": true,
          "internalType": "bytes32",
          "name": "role",
          "type": "bytes32"
        },
        {
          "indexed": true,
          "internalType": "address",
          "name": "account",
          "type": "address"
        },
        {
          "indexed": true,
          "internalType": "address",
          "name": "sender",
          "type": "address"
        }
      ],
      "name": "RoleGranted",
      "type": "event"
    },
    {
      "anonymous": false,
      "inputs": [
        {
          "indexed": true,
          "internalType": "bytes32",
          "name": "role",
          "type": "bytes32"
        },
        {
          "indexed": true,
          "internalType": "address",
          "name": "account",
          "type": "address"
        },
        {
          "indexed": true,
          "internalType": "address",
          "name": "sender",
          "type": "address"
        }
      ],
      "name": "RoleRevoked",
      "type": "event"
    },
    {
      "anonymous": false,
      "inputs": [
        {
          "indexed": false,
          "internalType": "address",
          "name": "account",
          "type": "address"
        }
      ],
      "name": "Unpaused",
      "type": "event"
    },
    {
      "inputs": [],
      "name": "ADMIN_ROLE",
      "outputs": [
        {
          "internalType": "bytes32",
          "name": "",
          "type": "bytes32"
        }
      ],
      "stateMutability": "view",
      "type": "function"
    },
    {
      "inputs": [],
      "name": "DEFAULT_ADMIN_ROLE",
      "outputs": [
        {
          "internalType": "bytes32",
          "name": "",
          "type": "bytes32"
        }
      ],
      "stateMutability": "view",
      "type": "function"
    },
    {
      "inputs": [],
      "name": "FARMER_ROLE",
      "outputs": [
        {
          "internalType": "bytes32",
          "name": "",
          "type": "bytes32"
        }
      ],
      "stateMutability": "view",
      "type": "function"
    },
    {
      "inputs": [],
      "name": "LOGISTICS_ROLE",
      "outputs": [
        {
          "internalType": "bytes32",
          "name": "",
          "type": "bytes32"
        }
      ],
      "stateMutability": "view",
      "type": "function"
    },
    {
      "inputs": [],
      "name": "MANUFACTURER_ROLE",
      "outputs": [
        {
          "internalType": "bytes32",
          "name": "",
          "type": "bytes32"
        }
      ],
      "stateMutability": "view",
      "type": "function"
    },
    {
      "inputs": [],
      "name": "RETAILER_ROLE",
      "outputs": [
        {
          "internalType": "bytes32",
          "name": "",
          "type": "bytes32"
        }
      ],
      "stateMutability": "view",
      "type": "function"
    },
    {
      "inputs": [
        {
          "internalType": "string",
          "name": "newProductId",
          "type": "string"
        },
        {
          "internalType": "string",
          "name": "newLotCode",
          "type": "string"
        },
        {
          "internalType": "bytes32[]",
          "name": "parentItemIds",
          "type": "bytes32[]"
        },
        {
          "internalType": "string",
          "name": "location",
          "type": "string"
        }
      ],
      "name": "combineItems",
      "outputs": [],
      "stateMutability": "nonpayable",
      "type": "function"
    },
    {
      "inputs": [
        {
          "internalType": "string",
          "name": "productId",
          "type": "string"
        },
        {
          "internalType": "string",
          "name": "lotCode",
          "type": "string"
        },
        {
          "internalType": "string",
          "name": "location",
          "type": "string"
        }
      ],
      "name": "createIngredient",
      "outputs": [],
      "stateMutability": "nonpayable",
      "type": "function"
    },
    {
      "inputs": [
        {
          "internalType": "bytes32",
          "name": "itemId",
          "type": "bytes32"
        }
      ],
      "name": "getItem",
      "outputs": [
        {
          "components": [
            {
              "internalType": "bytes32",
              "name": "itemId",
              "type": "bytes32"
            },
            {
              "internalType": "string",
              "name": "productId",
              "type": "string"
            },
            {
              "internalType": "string",
              "name": "lotCode",
              "type": "string"
            },
            {
              "internalType": "address",
              "name": "currentOwner",
              "type": "address"
            },
            {
              "internalType": "uint256",
              "name": "creationDate",
              "type": "uint256"
            },
            {
              "internalType": "enum SupplyChain.ItemStatus",
              "name": "status",
              "type": "uint8"
            },
            {
              "internalType": "bytes32[]",
              "name": "parentItems",
              "type": "bytes32[]"
            }
          ],
          "internalType": "struct SupplyChain.Item",
          "name": "",
          "type": "tuple"
        }
      ],
      "stateMutability": "view",
      "type": "function"
    },
    {
      "inputs": [
        {
          "internalType": "bytes32",
          "name": "itemId",
          "type": "bytes32"
        }
      ],
      "name": "getItemHistory",
      "outputs": [
        {
          "components": [
            {
              "internalType": "enum SupplyChain.ItemStatus",
              "name": "status",
              "type": "uint8"
            },
            {
              "internalType": "address",
              "name": "actor",
              "type": "address"
            },
            {
              "internalType": "uint256",
              "name": "timestamp",
              "type": "uint256"
            },
            {
              "internalType": "string",
              "name": "location",
              "type": "string"
            },
            {
              "internalType": "int256",
              "name": "temperature",
              "type": "int256"
            }
          ],
          "internalType": "struct SupplyChain.ItemHistoryEntry[]",
          "name": "",
          "type": "tuple[]"
        }
      ],
      "stateMutability": "view",
      "type": "function"
    },
    {
      "inputs": [
        {
          "internalType": "string",
          "name": "lotCode",
          "type": "string"
        }
      ],
      "name": "getItemIdByLotCode",
      "outputs": [
        {
          "internalType": "bytes32",
          "name": "",
          "type": "bytes32"
        }
      ],
      "stateMutability": "view",
      "type": "function"
    },
    {
      "inputs": [
        {
          "internalType": "bytes32",
          "name": "itemId",
          "type": "bytes32"
        }
      ],
      "name": "getParentItems",
      "outputs": [
        {
          "internalType": "bytes32[]",
          "name": "",
          "type": "bytes32[]"
        }
      ],
      "stateMutability": "view",
      "type": "function"
    },
    {
      "inputs": [
        {
          "internalType": "bytes32",
          "name": "role",
          "type": "bytes32"
        }
      ],
      "name": "getRoleAdmin",
      "outputs": [
        {
          "internalType": "bytes32",
          "name": "",
          "type": "bytes32"
        }
      ],
      "stateMutability": "view",
      "type": "function"
    },
    {
      "inputs": [
        {
          "internalType": "bytes32",
          "name": "role",
          "type": "bytes32"
        },
        {
          "internalType": "address",
          "name": "account",
          "type": "address"
        }
      ],
      "name": "grantRole",
      "outputs": [],
      "stateMutability": "nonpayable",
      "type": "function"
    },
    {
      "inputs": [
        {
          "internalType": "bytes32",
          "name": "role",
          "type": "bytes32"
        },
        {
          "internalType": "address",
          "name": "account",
          "type": "address"
        }
      ],
      "name": "hasRole",
      "outputs": [
        {
          "internalType": "bool",
          "name": "",
          "type": "bool"
        }
      ],
      "stateMutability": "view",
      "type": "function"
    },
    {
      "inputs": [
        {
          "internalType": "bytes32",
          "name": "",
          "type": "bytes32"
        },
        {
          "internalType": "uint256",
          "name": "",
          "type": "uint256"
        }
      ],
      "name": "itemHistory",
      "outputs": [
        {
          "internalType": "enum SupplyChain.ItemStatus",
          "name": "status",
          "type": "uint8"
        },
        {
          "internalType": "address",
          "name": "actor",
          "type": "address"
        },
        {
          "internalType": "uint256",
          "name": "timestamp",
          "type": "uint256"
        },
        {
          "internalType": "string",
          "name": "location",
          "type": "string"
        },
        {
          "internalType": "int256",
          "name": "temperature",
          "type": "int256"
        }
      ],
      "stateMutability": "view",
      "type": "function"
    },
    {
      "inputs": [
        {
          "internalType": "bytes32",
          "name": "",
          "type": "bytes32"
        }
      ],
      "name": "items",
      "outputs": [
        {
          "internalType": "bytes32",
          "name": "itemId",
          "type": "bytes32"
        },
        {
          "internalType": "string",
          "name": "productId",
          "type": "string"
        },
        {
          "internalType": "string",
          "name": "lotCode",
          "type": "string"
        },
        {
          "internalType": "address",
          "name": "currentOwner",
          "type": "address"
        },
        {
          "internalType": "uint256",
          "name": "creationDate",
          "type": "uint256"
        },
        {
          "internalType": "enum SupplyChain.ItemStatus",
          "name": "status",
          "type": "uint8"
        }
      ],
      "stateMutability": "view",
      "type": "function"
    },
    {
      "inputs": [
        {
          "internalType": "string",
          "name": "",
          "type": "string"
        }
      ],
      "name": "lotCodeToItemId",
      "outputs": [
        {
          "internalType": "bytes32",
          "name": "",
          "type": "bytes32"
        }
      ],
      "stateMutability": "view",
      "type": "function"
    },
    {
      "inputs": [],
      "name": "pause",
      "outputs": [],
      "stateMutability": "nonpayable",
      "type": "function"
    },
    {
      "inputs": [],
      "name": "paused",
      "outputs": [
        {
          "internalType": "bool",
          "name": "",
          "type": "bool"
        }
      ],
      "stateMutability": "view",
      "type": "function"
    },
    {
      "inputs": [
        {
          "internalType": "bytes32",
          "name": "itemId",
          "type": "bytes32"
        },
        {
          "internalType": "string",
          "name": "location",
          "type": "string"
        }
      ],
      "name": "recallItem",
      "outputs": [],
      "stateMutability": "nonpayable",
      "type": "function"
    },
    {
      "inputs": [
        {
          "internalType": "bytes32",
          "name": "itemId",
          "type": "bytes32"
        },
        {
          "internalType": "string",
          "name": "location",
          "type": "string"
        },
        {
          "internalType": "int256",
          "name": "temperature",
          "type": "int256"
        }
      ],
      "name": "receiveItem",
      "outputs": [],
      "stateMutability": "nonpayable",
      "type": "function"
    },
    {
      "inputs": [
        {
          "internalType": "bytes32",
          "name": "role",
          "type": "bytes32"
        },
        {
          "internalType": "address",
          "name": "account",
          "type": "address"
        }
      ],
      "name": "renounceRole",
      "outputs": [],
      "stateMutability": "nonpayable",
      "type": "function"
    },
    {
      "inputs": [
        {
          "internalType": "bytes32",
          "name": "role",
          "type": "bytes32"
        },
        {
          "internalType": "address",
          "name": "account",
          "type": "address"
        }
      ],
      "name": "revokeRole",
      "outputs": [],
      "stateMutability": "nonpayable",
      "type": "function"
    },
    {
      "inputs": [
        {
          "internalType": "bytes32",
          "name": "itemId",
          "type": "bytes32"
        },
        {
          "internalType": "address",
          "name": "receiver",
          "type": "address"
        },
        {
          "internalType": "string",
          "name": "location",
          "type": "string"
        },
        {
          "internalType": "int256",
          "name": "temperature",
          "type": "int256"
        }
      ],
      "name": "shipItem",
      "outputs": [],
      "stateMutability": "nonpayable",
      "type": "function"
    },
    {
      "inputs": [
        {
          "internalType": "bytes4",
          "name": "interfaceId",
          "type": "bytes4"
        }
      ],
      "name": "supportsInterface",
      "outputs": [
        {
          "internalType": "bool",
          "name": "",
          "type": "bool"
        }
      ],
      "stateMutability": "view",
      "type": "function"
    },
    {
      "inputs": [],
      "name": "unpause",
      "outputs": [],
      "stateMutability": "nonpayable",
      "type": "function"
    }
  ],
  "bytecode": "0x60806040523480156200001157600080fd5b5060405162002cb138038062002cb18339810160408190526200003491620002a4565b600180556002805460ff191690556001600160a01b0381166200009d5760405162461bcd60e51b815260206004820152601c60248201527f41646d696e20616464726573732063616e6e6f74206265207a65726f00000000604482015260640160405180910390fd5b620000aa600082620001b8565b620000c560008051602062002c9183398151915282620001b8565b620001007f7c6181838a71a779e445600d4c6ecbe16bacf2b3c5bda69c29fada66d1b645d160008051602062002c9183398151915262000259565b6200013b7feefb95e842a3287179d933b4460be539a1d5af11aa8b325bb45c5c8dc92de4ed60008051602062002c9183398151915262000259565b620001767fded9b5e0e0e3a2b3f09a0bc36ec64b9bf7a7c2319f3c4d9cff5ce48714257b2160008051602062002c9183398151915262000259565b620001b17f2a5f906c256a5d799494fcd066e1f6c077689de1cdb65052a1624de4bace99bf60008051602062002c9183398151915262000259565b50620002d6565b6000828152602081815260408083206001600160a01b038516845290915290205460ff1662000255576000828152602081815260408083206001600160a01b03851684529091529020805460ff19166001179055620002143390565b6001600160a01b0316816001600160a01b0316837f2f8788117e7eff1d82e926ec794901d17c78024a50270940304540a733656f0d60405160405180910390a45b5050565b600082815260208190526040808220600101805490849055905190918391839186917fbd79b86ffe0ab8e8776151514217cd7cacd52c909f66475c3af44e129f0b00ff9190a4505050565b600060208284031215620002b757600080fd5b81516001600160a01b0381168114620002cf57600080fd5b9392505050565b6129ab80620002e66000396000f3fe608060405234801561001057600080fd5b50600436106101a95760003560e01c80638456cb59116100f9578063c27795bd11610097578063d7b1c2a311610071578063d7b1c2a31461040f578063e39e267914610422578063f394397014610435578063faa22e4d1461045c57600080fd5b8063c27795bd146103aa578063c602d3fb146103d5578063d547741f146103fc57600080fd5b8063965288b0116100d3578063965288b01461033b578063a217fddf14610362578063aa0372e71461036a578063bffacf671461038a57600080fd5b80638456cb591461030d5780638fd2ab1a1461031557806391d148541461032857600080fd5b806336568abe1161016657806353fe43251161014057806353fe4325146102c75780635c975abb146102da57806375b238fc146102e5578063769b92d0146102fa57600080fd5b806336568abe146102875780633f4ba83a1461029a57806348f343f3146102a257600080fd5b806301ffc9a7146101ae57806315459471146101d6578063205bcce2146101f65780632115e7bf1461021a578063248a9ca31461024f5780632f2ff15d14610272575b600080fd5b6101c16101bc366004611f19565b61046f565b60405190151581526020015b60405180910390f35b6101e96101e4366004611f43565b6104a6565b6040516101cd9190611fe4565b61020961020436600461208c565b61063a565b6040516101cd9594939291906120ae565b6102417f2a5f906c256a5d799494fcd066e1f6c077689de1cdb65052a1624de4bace99bf81565b6040519081526020016101cd565b61024161025d366004611f43565b60009081526020819052604090206001015490565b610285610280366004612110565b61071f565b005b610285610295366004612110565b610749565b6102856107c7565b6102b56102b0366004611f43565b6107ea565b6040516101cd9695949392919061213c565b6102856102d5366004612250565b61093e565b60025460ff166101c1565b61024160008051602061295683398151915281565b6102856103083660046122af565b610b8d565b610285610d2d565b6102856103233660046122ff565b610d4d565b6101c1610336366004612110565b610f99565b6102417feefb95e842a3287179d933b4460be539a1d5af11aa8b325bb45c5c8dc92de4ed81565b610241600081565b61037d610378366004611f43565b610fc2565b6040516101cd91906123c2565b61039d610398366004611f43565b611220565b6040516101cd919061245e565b6102416103b8366004612471565b805160208183018101805160058252928201919093012091525481565b6102417fded9b5e0e0e3a2b3f09a0bc36ec64b9bf7a7c2319f3c4d9cff5ce48714257b2181565b61028561040a366004612110565b6112b1565b61024161041d366004612471565b6112d6565b6102856104303660046124ae565b6112fe565b6102417f7c6181838a71a779e445600d4c6ecbe16bacf2b3c5bda69c29fada66d1b645d181565b61028561046a3660046125bd565b611831565b60006001600160e01b03198216637965db0b60e01b14806104a057506301ffc9a760e01b6001600160e01b03198316145b92915050565b6000818152600360205260409020546060906104dd5760405162461bcd60e51b81526004016104d490612604565b60405180910390fd5b600082815260046020908152604080832080548251818502810185019093528083529193909284015b8282101561062f57838290600052602060002090600402016040518060a00160405290816000820160009054906101000a900460ff16600481111561054d5761054d611f5c565b600481111561055e5761055e611f5c565b8152815461010090046001600160a01b031660208201526001820154604082015260028201805460609092019161059490612631565b80601f01602080910402602001604051908101604052809291908181526020018280546105c090612631565b801561060d5780601f106105e25761010080835404028352916020019161060d565b820191906000526020600020905b8154815290600101906020018083116105f057829003601f168201915b5050505050815260200160038201548152505081526020019060010190610506565b505050509050919050565b6004602052816000526040600020818154811061065657600080fd5b600091825260209091206004909102018054600182015460028301805460ff841696506101009093046001600160a01b0316945090929161069690612631565b80601f01602080910402602001604051908101604052809291908181526020018280546106c290612631565b801561070f5780601f106106e45761010080835404028352916020019161070f565b820191906000526020600020905b8154815290600101906020018083116106f257829003601f168201915b5050505050908060030154905085565b60008281526020819052604090206001015461073a81611956565b6107448383611960565b505050565b6001600160a01b03811633146107b95760405162461bcd60e51b815260206004820152602f60248201527f416363657373436f6e74726f6c3a2063616e206f6e6c792072656e6f756e636560448201526e103937b632b9903337b91039b2b63360891b60648201526084016104d4565b6107c382826119e4565b5050565b6000805160206129568339815191526107df81611956565b6107e7611a49565b50565b6003602052600090815260409020805460018201805491929161080c90612631565b80601f016020809104026020016040519081016040528092919081815260200182805461083890612631565b80156108855780601f1061085a57610100808354040283529160200191610885565b820191906000526020600020905b81548152906001019060200180831161086857829003601f168201915b50505050509080600201805461089a90612631565b80601f01602080910402602001604051908101604052809291908181526020018280546108c690612631565b80156109135780601f106108e857610100808354040283529160200191610913565b820191906000526020600020905b8154815290600101906020018083116108f657829003601f168201915b505050506003830154600484015460059094015492936001600160a01b039091169290915060ff1686565b7fded9b5e0e0e3a2b3f09a0bc36ec64b9bf7a7c2319f3c4d9cff5ce48714257b2161096881611956565b610970611a9b565b610978611ae3565b6000858152600360205260409020546109a35760405162461bcd60e51b81526004016104d490612604565b6001600160a01b0384166109f95760405162461bcd60e51b815260206004820152601f60248201527f526563656976657220616464726573732063616e6e6f74206265207a65726f0060448201526064016104d4565b60008581526003602052604081206005015460ff166004811115610a1f57610a1f611f5c565b1480610a505750600260008681526003602052604090206005015460ff166004811115610a4e57610a4e611f5c565b145b610a9c5760405162461bcd60e51b815260206004820152601f60248201527f4974656d206e6f7420617661696c61626c6520666f7220736869706d656e740060448201526064016104d4565b600085815260036020819052604090912090810180546005909201805460ff191660019081179091556001600160a01b038781166001600160a01b0319851617909255911690610aef9087908686611b3c565b336001877f5ebfeecd7debe570fc1f598725a253c58415f0f32952b1ad5d627844303ec4ff878742604051610b269392919061266b565b60405180910390a4846001600160a01b0316816001600160a01b0316877face2acf734beba61fbbf401c0197eb75c3bad12054d179b0dfbb2902c256c75c42604051610b7491815260200190565b60405180910390a450610b8660018055565b5050505050565b610b95611a9b565b610b9d611ae3565b600083815260036020526040902054610bc85760405162461bcd60e51b81526004016104d490612604565b600160008481526003602052604090206005015460ff166004811115610bf057610bf0611f5c565b14610c365760405162461bcd60e51b8152602060048201526016602482015275125d195b481a5cc81b9bdd081a5b881d1c985b9cda5d60521b60448201526064016104d4565b600083815260036020819052604090912001546001600160a01b03163314610cb95760405162461bcd60e51b815260206004820152603060248201527f4f6e6c79207468652064657369676e617465642072656365697665722063616e60448201526f0818dbdb999a5c9b481c9958d95a5c1d60821b60648201526084016104d4565b6000838152600360205260409020600501805460ff19166002908117909155610ce59084908484611b3c565b336002847f5ebfeecd7debe570fc1f598725a253c58415f0f32952b1ad5d627844303ec4ff858542604051610d1c9392919061266b565b60405180910390a461074460018055565b600080516020612956833981519152610d4581611956565b6107e7611c25565b7f7c6181838a71a779e445600d4c6ecbe16bacf2b3c5bda69c29fada66d1b645d1610d7781611956565b610d7f611a9b565b610d87611ae3565b6000845111610dd85760405162461bcd60e51b815260206004820152601a60248201527f50726f647563742049442063616e6e6f7420626520656d70747900000000000060448201526064016104d4565b6000835111610e245760405162461bcd60e51b81526020600482015260186024820152774c6f7420636f64652063616e6e6f7420626520656d70747960401b60448201526064016104d4565b6000801b600584604051610e389190612690565b90815260200160405180910390205414610e8e5760405162461bcd60e51b81526020600482015260176024820152764c6f7420636f646520616c72656164792065786973747360481b60448201526064016104d4565b6000848442604051602001610ea5939291906126ac565b60408051601f19818403018152918152815160209283012060008181526003909352912081815590915060018101610edd878261272f565b5060028101610eec868261272f565b506003810180546001600160a01b031916331790554260048201556005808201805460ff19169055604051839190610f25908890612690565b90815260405190819003602001902055610f428260008681611b3c565b336001600160a01b0316827fe8a3234d9055fc090ef8dc302caeb10f4b44f6e869915c5a750a7b6eef755637888842604051610f80939291906127ef565b60405180910390a35050610f9360018055565b50505050565b6000918252602082815260408084206001600160a01b0393909316845291905290205460ff1690565b6040805160e08101825260008082526060602083018190529282018390528282018190526080820181905260a082015260c08101919091526000828152600360205260409020546110255760405162461bcd60e51b81526004016104d490612604565b600360008381526020019081526020016000206040518060e00160405290816000820154815260200160018201805461105d90612631565b80601f016020809104026020016040519081016040528092919081815260200182805461108990612631565b80156110d65780601f106110ab576101008083540402835291602001916110d6565b820191906000526020600020905b8154815290600101906020018083116110b957829003601f168201915b505050505081526020016002820180546110ef90612631565b80601f016020809104026020016040519081016040528092919081815260200182805461111b90612631565b80156111685780601f1061113d57610100808354040283529160200191611168565b820191906000526020600020905b81548152906001019060200180831161114b57829003601f168201915b505050918352505060038201546001600160a01b031660208201526004808301546040830152600583015460609092019160ff16908111156111ac576111ac611f5c565b60048111156111bd576111bd611f5c565b81526020016006820180548060200260200160405190810160405280929190818152602001828054801561121057602002820191906000526020600020905b8154815260200190600101908083116111fc575b5050505050815250509050919050565b60008181526003602052604090205460609061124e5760405162461bcd60e51b81526004016104d490612604565b600082815260036020908152604091829020600601805483518184028101840190945280845290918301828280156112a557602002820191906000526020600020905b815481526020019060010190808311611291575b50505050509050919050565b6000828152602081905260409020600101546112cc81611956565b61074483836119e4565b60006005826040516112e89190612690565b9081526020016040518091039020549050919050565b7feefb95e842a3287179d933b4460be539a1d5af11aa8b325bb45c5c8dc92de4ed61132881611956565b611330611a9b565b611338611ae3565b60008551116113895760405162461bcd60e51b815260206004820152601a60248201527f50726f647563742049442063616e6e6f7420626520656d70747900000000000060448201526064016104d4565b60008451116113d55760405162461bcd60e51b81526020600482015260186024820152774c6f7420636f64652063616e6e6f7420626520656d70747960401b60448201526064016104d4565b60008351116114315760405162461bcd60e51b815260206004820152602260248201527f4d7573742068617665206174206c65617374206f6e6520706172656e74206974604482015261656d60f01b60648201526084016104d4565b6000801b6005856040516114459190612690565b9081526020016040518091039020541461149b5760405162461bcd60e51b81526020600482015260176024820152764c6f7420636f646520616c72656164792065786973747360481b60448201526064016104d4565b60005b8351811015611635576000801b600360008684815181106114c1576114c1612825565b6020026020010151815260200190815260200160002060000154036115285760405162461bcd60e51b815260206004820152601a60248201527f506172656e74206974656d20646f6573206e6f7420657869737400000000000060448201526064016104d4565b60006003600086848151811061154057611540612825565b60209081029190910181015182528101919091526040016000206005015460ff16600481111561157257611572611f5c565b14806115c5575060026003600086848151811061159157611591612825565b60209081029190910181015182528101919091526040016000206005015460ff1660048111156115c3576115c3611f5c565b145b6116235760405162461bcd60e51b815260206004820152602960248201527f506172656e74206974656d206e6f7420617661696c61626c6520666f7220636f6044820152683739bab6b83a34b7b760b91b60648201526084016104d4565b8061162d81612851565b91505061149e565b50600085854260405160200161164d939291906126ac565b60408051601f19818403018152918152815160209283012060008181526003909352912081815590915060018101611685888261272f565b5060028101611694878261272f565b506003810180546001600160a01b0319163317905542600482015560058101805460ff1916905584516116d09060068301906020880190611eb9565b50816005876040516116e29190612690565b9081526040519081900360200190205560005b855181101561178d57600380600088848151811061171557611715612825565b6020026020010151815260200190815260200160002060050160006101000a81548160ff0219169083600481111561174f5761174f611f5c565b021790555061177b86828151811061176957611769612825565b60200260200101516003876000611b3c565b8061178581612851565b9150506116f5565b5061179c826000866000611b3c565b336001600160a01b0316827fe8a3234d9055fc090ef8dc302caeb10f4b44f6e869915c5a750a7b6eef7556378989426040516117da939291906127ef565b60405180910390a3336001600160a01b0316827f9fb6a96f52656024d0f70cd1a2a71c20d9a346aa9e7ea12bda7e43750b16975b874260405161181e92919061286a565b60405180910390a35050610b8660018055565b60008051602061295683398151915261184981611956565b611851611a9b565b611859611ae3565b6000838152600360205260409020546118845760405162461bcd60e51b81526004016104d490612604565b600460008481526003602052604090206005015460ff1660048111156118ac576118ac611f5c565b036118f15760405162461bcd60e51b8152602060048201526015602482015274125d195b48185b1c9958591e481c9958d85b1b1959605a1b60448201526064016104d4565b6000838152600360205260408120600501805460ff1916600490811790915561191e918591908590611b3c565b336004847f5ebfeecd7debe570fc1f598725a253c58415f0f32952b1ad5d627844303ec4ff85600042604051610d1c9392919061266b565b6107e78133611c62565b61196a8282610f99565b6107c3576000828152602081815260408083206001600160a01b03851684529091529020805460ff191660011790556119a03390565b6001600160a01b0316816001600160a01b0316837f2f8788117e7eff1d82e926ec794901d17c78024a50270940304540a733656f0d60405160405180910390a45050565b6119ee8282610f99565b156107c3576000828152602081815260408083206001600160a01b0385168085529252808320805460ff1916905551339285917ff6391f5c32d9c69d2a47ea670b442974b53935d1edc7fd64eb21e047a839171b9190a45050565b611a51611cbb565b6002805460ff191690557f5db9ee0a495bf2e6ff9c91a7834c1ba4fdd244a5e8aa4e537bd38aeae4b073aa335b6040516001600160a01b03909116815260200160405180910390a1565b60025460ff1615611ae15760405162461bcd60e51b815260206004820152601060248201526f14185d5cd8589b194e881c185d5cd95960821b60448201526064016104d4565b565b600260015403611b355760405162461bcd60e51b815260206004820152601f60248201527f5265656e7472616e637947756172643a207265656e7472616e742063616c6c0060448201526064016104d4565b6002600155565b600460008581526020019081526020016000206040518060a00160405280856004811115611b6c57611b6c611f5c565b815233602080830191909152426040830152606082018690526080909101849052825460018181018555600094855291909320825160049485029091018054939490939192849260ff1916918490811115611bc957611bc9611f5c565b0217905550602082015181546001600160a01b0390911661010002610100600160a81b03199091161781556040820151600182015560608201516002820190611c12908261272f565b5060808201518160030155505050505050565b611c2d611a9b565b6002805460ff191660011790557f62e78cea01bee320cd4e420270b5ea74000d11b0c9f74754ebdbfc544b05a258611a7e3390565b611c6c8282610f99565b6107c357611c7981611d04565b611c84836020611d16565b604051602001611c9592919061288c565b60408051601f198184030181529082905262461bcd60e51b82526104d491600401612901565b60025460ff16611ae15760405162461bcd60e51b815260206004820152601460248201527314185d5cd8589b194e881b9bdd081c185d5cd95960621b60448201526064016104d4565b60606104a06001600160a01b03831660145b60606000611d25836002612914565b611d3090600261292b565b67ffffffffffffffff811115611d4857611d48612199565b6040519080825280601f01601f191660200182016040528015611d72576020820181803683370190505b509050600360fc1b81600081518110611d8d57611d8d612825565b60200101906001600160f81b031916908160001a905350600f60fb1b81600181518110611dbc57611dbc612825565b60200101906001600160f81b031916908160001a9053506000611de0846002612914565b611deb90600161292b565b90505b6001811115611e63576f181899199a1a9b1b9c1cb0b131b232b360811b85600f1660108110611e1f57611e1f612825565b1a60f81b828281518110611e3557611e35612825565b60200101906001600160f81b031916908160001a90535060049490941c93611e5c8161293e565b9050611dee565b508315611eb25760405162461bcd60e51b815260206004820181905260248201527f537472696e67733a20686578206c656e67746820696e73756666696369656e7460448201526064016104d4565b9392505050565b828054828255906000526020600020908101928215611ef4579160200282015b82811115611ef4578251825591602001919060010190611ed9565b50611f00929150611f04565b5090565b5b80821115611f005760008155600101611f05565b600060208284031215611f2b57600080fd5b81356001600160e01b031981168114611eb257600080fd5b600060208284031215611f5557600080fd5b5035919050565b634e487b7160e01b600052602160045260246000fd5b60058110611f9057634e487b7160e01b600052602160045260246000fd5b9052565b60005b83811015611faf578181015183820152602001611f97565b50506000910152565b60008151808452611fd0816020860160208601611f94565b601f01601f19169290920160200192915050565b60006020808301818452808551808352604092508286019150828160051b87010184880160005b8381101561207e57603f19898403018552815160a061202b858351611f72565b818901516001600160a01b0316858a0152878201518886015260608083015181870183905261205c83880182611fb8565b608094850151979094019690965250509487019492509086019060010161200b565b509098975050505050505050565b6000806040838503121561209f57600080fd5b50508035926020909101359150565b6120b88187611f72565b60018060a01b038516602082015283604082015260a0606082015260006120e260a0830185611fb8565b90508260808301529695505050505050565b80356001600160a01b038116811461210b57600080fd5b919050565b6000806040838503121561212357600080fd5b82359150612133602084016120f4565b90509250929050565b86815260c06020820152600061215560c0830188611fb8565b82810360408401526121678188611fb8565b6001600160a01b038716606085015260808401869052915061218e905060a0830184611f72565b979650505050505050565b634e487b7160e01b600052604160045260246000fd5b604051601f8201601f1916810167ffffffffffffffff811182821017156121d8576121d8612199565b604052919050565b600082601f8301126121f157600080fd5b813567ffffffffffffffff81111561220b5761220b612199565b61221e601f8201601f19166020016121af565b81815284602083860101111561223357600080fd5b816020850160208301376000918101602001919091529392505050565b6000806000806080858703121561226657600080fd5b84359350612276602086016120f4565b9250604085013567ffffffffffffffff81111561229257600080fd5b61229e878288016121e0565b949793965093946060013593505050565b6000806000606084860312156122c457600080fd5b83359250602084013567ffffffffffffffff8111156122e257600080fd5b6122ee868287016121e0565b925050604084013590509250925092565b60008060006060848603121561231457600080fd5b833567ffffffffffffffff8082111561232c57600080fd5b612338878388016121e0565b9450602086013591508082111561234e57600080fd5b61235a878388016121e0565b9350604086013591508082111561237057600080fd5b5061237d868287016121e0565b9150509250925092565b600081518084526020808501945080840160005b838110156123b75781518752958201959082019060010161239b565b509495945050505050565b60208152815160208201526000602083015160e060408401526123e9610100840182611fb8565b90506040840151601f19808584030160608601526124078383611fb8565b925060018060a01b036060870151166080860152608086015160a086015260a0860151915061243960c0860183611f72565b60c08601519150808584030160e0860152506124558282612387565b95945050505050565b602081526000611eb26020830184612387565b60006020828403121561248357600080fd5b813567ffffffffffffffff81111561249a57600080fd5b6124a6848285016121e0565b949350505050565b600080600080608085870312156124c457600080fd5b843567ffffffffffffffff808211156124dc57600080fd5b6124e8888389016121e0565b95506020915081870135818111156124ff57600080fd5b61250b89828a016121e0565b95505060408701358181111561252057600080fd5b8701601f8101891361253157600080fd5b80358281111561254357612543612199565b8060051b6125528582016121af565b918252828101850191858101908c84111561256c57600080fd5b938601935b8385101561258a57843582529386019390860190612571565b97505050506060880135925050808211156125a457600080fd5b506125b1878288016121e0565b91505092959194509250565b600080604083850312156125d057600080fd5b82359150602083013567ffffffffffffffff8111156125ee57600080fd5b6125fa858286016121e0565b9150509250929050565b602080825260139082015272125d195b48191bd95cc81b9bdd08195e1a5cdd606a1b604082015260600190565b600181811c9082168061264557607f821691505b60208210810361266557634e487b7160e01b600052602260045260246000fd5b50919050565b60608152600061267e6060830186611fb8565b60208301949094525060400152919050565b600082516126a2818460208701611f94565b9190910192915050565b600084516126be818460208901611f94565b8451908301906126d2818360208901611f94565b01928352505060200192915050565b601f82111561074457600081815260208120601f850160051c810160208610156127085750805b601f850160051c820191505b8181101561272757828155600101612714565b505050505050565b815167ffffffffffffffff81111561274957612749612199565b61275d816127578454612631565b846126e1565b602080601f831160018114612792576000841561277a5750858301515b600019600386901b1c1916600185901b178555612727565b600085815260208120601f198616915b828110156127c1578886015182559484019460019091019084016127a2565b50858210156127df5787850151600019600388901b60f8161c191681555b5050505050600190811b01905550565b6060815260006128026060830186611fb8565b82810360208401526128148186611fb8565b915050826040830152949350505050565b634e487b7160e01b600052603260045260246000fd5b634e487b7160e01b600052601160045260246000fd5b6000600182016128635761286361283b565b5060010190565b60408152600061287d6040830185612387565b90508260208301529392505050565b7f416363657373436f6e74726f6c3a206163636f756e74200000000000000000008152600083516128c4816017850160208801611f94565b7001034b99036b4b9b9b4b733903937b6329607d1b60179184019182015283516128f5816028840160208801611f94565b01602801949350505050565b602081526000611eb26020830184611fb8565b80820281158282048414176104a0576104a061283b565b808201808211156104a0576104a061283b565b60008161294d5761294d61283b565b50600019019056fea49807205ce4d355092ef5a8a18f56e8913cf4a201fbe287825b095693c21775a26469706673582212203c4fa0b0196746b4b5a0e54fcfb94ec5c9144433310db5d58cf814a225e2f37f64736f6c63430008130033a49807205ce4d355092ef5a8a18f56e8913cf4a201fbe287825b095693c21775",
  "address": "0xe78A0F7E598Cc8b0Bb87894B0F60dD2a88d6a8Ab"
}